:100000000C943F010C9470010C9470010C947001DD
:100010000C9470010C9470010C9470010C9470019C
:100020000C9470010C9470010C9470010C9470018C
:100030000C9470010C9470010C9470010C9470017C
:100040000C9470010C9470010C9470010C9470016C
:100050000C9470010C9470010C9470010C947A064D
:100060000C9470010C9444060C941A060C947001C4
:100070000C9470010C9470010C9470010C9470013C
:100080000C9470010C9470010C9470010C9470012C
:100090000C9470010C9470010C9470010C94E804A1
:1000A0000C9470010C9470010C9470010C9470010C
:1000B0000C9470010C9470010C9470010C947001FC
:1000C0000C9470010C9470010C9470010C947001EC
:1000D0000C9470010C9470010C9470010C947001DC
:1000E0000C947001B001B301A201A601AA01EA01BA
:1000F000B701BB01C101C501C901CF01D301D701BE
:10010000EA01DD01E101E5010C94C0020C94EA0171
:100110000C94AA010C94D7010C94CB030C944702C5
:100120000C94B7010C94C9010C94A2010C947302B5
:100130000C94CF010C94A6010C94B3010C94A00371
:100140000C94E1010C949E020C948F020C94C1015A
:100150000C9479010C9481010C9457020C947E024A
:100160000C943B030C9409070C94D3010C94B20239
:100170000C94EE020C94C5010C946B020C94DD01FE
:100180000C94BB010C9448020C94B0010C94E50152
:1001900000002200250028002B002E003100340032
:1001A00002010000050108010B0105050505070511
:1001B00008080808020202020A0A080804040404E3
:1001C000010101010101010103030303030303030F
:1001D000040707070C0C0C0C0C0C0C0C020202029E
:1001E00006060606060606060B0B0B0B0B0B0B0B87
:1001F0000102102020080810204010204080020139
:10020000020108040201010204081020408080401D
:10021000201008040201800402018040201008041C
:1002200002010804020101020408102040800102BA
:1002300004081020408000000A0B02090C0D0E0873
:10024000070304010000000000000000000000009F
:10025000000000000000000000000000000000009E
:10026000000012111000000000000000000000005B
:100270000000000000000000000000000907112439
:100280001FBECFEFD1E2DEBFCDBF00E00CBF12E05A
:10029000A0E0B2E0E2E6FFE000E00BBF02C00790A2
:1002A0000D92A433B107D9F723E0A4E3B2E001C073
:1002B0001D92AA37B207E1F711E0CFE3D1E000E0E9
:1002C00006C021970109802FFE010E94A707CE33A7
:1002D000D10780E00807A9F70E940F070C947D075B
:1002E0000C94000089E791E09093DC028093DB029C
:1002F0000895089581E891E09093DA028093D902FD
:100300000895089590E0FC01EA5CFD4F4491FC01E2
:10031000E051FE4F2491FC01E655FE4F9491992344
:1003200009F466C0442309F455C050E0FA0131973E
:10033000E231F10508F04EC08827EE58FF4F8F4F8D
:100340000C94A707809180008F7707C08091800070
:100350008F7D03C080918000877F809380003AC0AA
:1003600084B58F7702C084B58F7D84BD33C0809102
:10037000B0008F7703C08091B0008F7D8093B00074
:1003800029C0809190008F7707C0809190008F7D69
:1003900003C080919000877F809390001BC0809164
:1003A000A0008F7707C08091A0008F7D03C080914F
:1003B000A000877F8093A0000DC0809120018F77DF
:1003C00007C0809120018F7D03C080912001877F2D
:1003D00080932001E92FF0E0EE0FFF1FE057FE4F62
:1003E000A591B4918FB7F894EC91E22BEC938FBF69
:1003F000089585ED8093BC008091BC0084FDFCCF06
:100400001092B302089540918F02262F30E0240FFE
:10041000311D21323105DCF42091B3022430C9F4BE
:10042000FC0180E090E0861758F430918F02219112
:10043000DC01A159BD4FA30FB11D2C930196F3CF41
:1004400080918F02680F60938F0280E0089581E0B1
:10045000089582E008951092B30281E08093B5027E
:100460001092B40284E10E94820185E10E9482011F
:10047000E9EBF0E080818E7F808380818D7F8083B7
:1004800088E48093B80085E48093BC0008950895C3
:10049000E091600280915F02E81730F4F0E0E15CE7
:1004A000FD4F808190E008958FEF9FEF0895909128
:1004B000600280915F02981750F4E92FF0E0E15C50
:1004C000FD4F208130E09F5F9093600202C02FEFCC
:1004D0003FEFC901089580915F0290E02091600292
:1004E000821B91090895CF93DF93CB01EA01642F1A
:1004F0000E940302CE01DF91CF910895CF93DF9345
:100500001F92CDB7DEB7698361E0CE0101960E94EC
:10051000030281E090E00F90DF91CF910895FC01FC
:10052000538D448D252F30E0842F90E0821B930B58
:10053000541710F0CF96089501970895FC01918DFE
:10054000828D981761F0828DDF01A80FB11D5D9635
:100550008C91928D9F5F9F73928F90E008958FEFA3
:100560009FEF0895FC01918D828D981731F0828D57
:10057000E80FF11D858D90E008958FEF9FEF0895AE
:10058000FC01918D228D892F90E0805C9F4F821B12
:1005900091098F7399270895FC01848DDF01A80FBD
:1005A000B11DA35ABF4F2C91848D90E001968F739B
:1005B0009927848FA689B7892C93A089B1898C91BA
:1005C000837080648C93938D848D981306C0028809
:1005D000F389E02D80818F7D80830895EF92FF92D3
:1005E0000F931F93CF93DF93EC0181E0888F9B8D56
:1005F0008C8D981305C0E889F989808185FD26C016
:10060000F62E0B8D10E00F5F1F4F0F731127E02E9A
:100610008C8DE8120CC00FB607FCFACFE889F98977
:10062000808185FFF5CFCE010E94CC02F1CF8B8D6A
:10063000FE01E80FF11DE35AFF4FF0829FB7F894D7
:100640000B8FEA89FB89808180620AC09FB7F8948A
:10065000EE89FF896083E889F989808183708064ED
:1006600080839FBF81E090E0DF91CF911F910F9138
:10067000FF90EF900895CF93DF93EC01888D88234E
:10068000C9F0EA89FB89808185FD05C0A889B989FF
:100690008C9186FD0FC00FB607FCF5CF808185FFDA
:1006A000F2CFA889B9898C9185FFEDCFCE010E9448
:1006B000CC02E7CFDF91CF9108958DED92E00E94BB
:1006C000C00221E0892B09F420E0822F089580E008
:1006D00090E0892B21F00E945D03811125C080E00C
:1006E00090E0892B41F080E090E0892B21F00E947E
:1006F000000081111CC080E090E0892B41F080E077
:1007000090E0892B21F00E940000811113C080E04D
:1007100090E0892BA1F080E090E0892B81F00E948D
:10072000000081110AC008950E940000D8CF0E94E5
:100730000000E1CF0E940000EACF0C940000089571
:10074000CF92DF92EF92FF920F931F93CF93DF939D
:100750006C017A018B01C0E0D0E0CE15DF0581F09D
:10076000D8016D918D01D601ED91FC910190F08140
:10077000E02DC6011995892B11F02196EECF7E014F
:10078000C701DF91CF911F910F91FF90EF90DF9004
:10079000CF900895089580E090E00895789484B50E
:1007A000826084BD84B5816084BD85B5826085BD6D
:1007B00085B5816085BDEEE6F0E080818160808353
:1007C000E1E8F0E010828081826080838081816036
:1007D0008083E0E8F0E0808181608083E1EBF0E0FD
:1007E000808184608083E0EBF0E0808181608083A1
:1007F000E1E9F0E080818260808380818160808394
:10080000E0E9F0E0808181608083E1EAF0E08081CE
:1008100082608083808181608083E0EAF0E0808173
:1008200081608083E1E2F1E0808182608083808169
:1008300081608083E0E2F1E0808181608083EAE78B
:10084000F0E0808184608083808182608083808109
:10085000816080838081806880831092C1000895C8
:100860003FB7F8948091390290913A02A0913B02EF
:10087000B0913C0226B5A89B05C02F3F19F0019608
:10088000A11DB11D3FBFBA2FA92F982F8827820F16
:10089000911DA11DB11DBC01CD0142E0660F771F66
:1008A000881F991F4A95D1F708958F929F92AF9212
:1008B000BF92CF92DF92EF92FF920E9430044B01E1
:1008C0005C0188EEC82E83E0D82EE12CF12C0E942A
:1008D0003004DC01CB0188199909AA09BB09883EBB
:1008E0009340A105B10598F321E0C21AD108E108AF
:1008F000F10888EE880E83E0981EA11CB11CC1147B
:10090000D104E104F10419F7FF90EF90DF90CF904C
:10091000BF90AF909F908F900895009799F0FC0141
:1009200001900020E9F73197AF01481B590BE09186
:10093000DD02F091DE020280F381E02DBC018DED3D
:1009400092E0199480E090E008958F929F92AF9288
:10095000BF920F931F93CF93DF93CDB7DEB7A197CD
:100960000FB6F894DEBF0FBECDBF19A2423008F417
:100970004AE08E010F5D1F4F842E912CA12CB12CCB
:10098000A50194010E948507E62FB901CA01015013
:100990001109EA3014F4E05D01C0E95CD801EC9380
:1009A000232B242B252B61F7C8010E948D04A196CF
:1009B0000FB6F894DEBF0FBECDBFDF91CF911F9170
:1009C0000F91BF90AF909F908F9008950E948007E5
:1009D0001F920F920FB60F9211240BB60F922F9306
:1009E0003F934F935F936F937F938F939F93AF93B7
:1009F000BF93EF93FF938091B900887F803609F40D
:100A00009CC068F5883209F45BC090F4803109F429
:100A100054C038F4882309F4F6C0883009F44DC076
:100A2000F6C0883109F44CC0803209F45DC0EFC0D3
:100A3000803409F468C048F4803309F455C0883321
:100A400009F0E5C08093B202D8C0803509F44FC0E8
:100A5000883509F45DC0883409F0D9C0D6C088391A
:100A600009F4C7C0A8F4883709F467C038F4883699
:100A700009F463C0803709F460C0C9C0883809F43C
:100A8000B8C0803909F45FC0803809F0C0C05BC0CD
:100A9000803B09F486C038F4803A09F466C0883A8D
:100AA00009F47FC0B4C0803C09F4A7C0883C09F4B5
:100AB000A4C0883B09F48AC0AAC08091D80210C0A3
:100AC0009091D7028091D602981770F5E091D702E5
:100AD00081E08E0F8093D702F0E0EA54FD4F8081D1
:100AE0008093BB0085EC86C08093B2028EC0E091FB
:100AF000D70281E08E0F8093D7028091BB00F0E097
:100B0000EA54FD4F80839091D7028091D6026EC047
:100B1000E091D70281E08E0F8093D7028091BB00D5
:100B2000F0E0EA54FD4F80838091B50281116DC0E1
:100B300081E08093B40284EA61C083E08093B302D1
:100B40001092B102CFCF8091B102803208F051C033
:100B5000E091B10281E08E0F8093B1028091BB00E1
:100B6000F0E0EF56FD4F8083BDCF85EC8093BC0055
:100B70001092B3028091B102803230F4E091B10260
:100B8000F0E0EF56FD4F10826091B10270E0E0910D
:100B9000DB02F091DC0281E992E019951092B1023A
:100BA00036C084E08093B3021092900210928F02BC
:100BB000E091D902F091DA02199580918F028111AA
:100BC00005C081E080938F0210926F02E091900245
:100BD00081E08E0F80939002F0E0E159FD4F80811B
:100BE0008093BB009091900280918F02981708F437
:100BF00079CF85E88093BC000AC085EC8093BC0067
:100C00001092B30204C01092B2020E94F901FF9147
:100C1000EF91BF91AF919F918F917F916F915F9174
:100C20004F913F912F910F900BBE0F900FBE0F90E1
:100C30001F9018951F920F920FB60F9211240BB6AA
:100C40000F922F933F934F935F936F937F938F9365
:100C50009F93AF93BF93EF93FF938DED92E00E942C
:100C6000CC02FF91EF91BF91AF919F918F917F91B6
:100C70006F915F914F913F912F910F900BBE0F900D
:100C80000FBE0F901F9018951F920F920FB60F92E4
:100C900011240BB60F922F938F939F93EF93FF9393
:100CA000E091ED02F091EE028081E091F302F0918B
:100CB000F40282FD12C090818091F6028F5F8F73E3
:100CC0002091F702821751F0E091F602F0E0E35232
:100CD000FD4F958F8093F60201C08081FF91EF91C7
:100CE0009F918F912F910F900BBE0F900FBE0F9081
:100CF0001F9018951F920F920FB60F9211242F93E9
:100D00003F938F939F93AF93BF93809135029091C0
:100D10003602A0913702B09138023091340223E0BC
:100D2000230F2D3720F40196A11DB11D05C026E823
:100D3000230F0296A11DB11D20933402809335022A
:100D400090933602A0933702B09338028091390213
:100D500090913A02A0913B02B0913C020196A11DF4
:100D6000B11D8093390290933A02A0933B02B09355
:100D70003C02BF91AF919F918F913F912F910F9026
:100D80000FBE0F901F901895E3E6F2E013821282D7
:100D900088EE93E0A0E0B0E084839583A683B783D8
:100DA00086E192E0918380830895EDEDF2E0138275
:100DB000128288EE93E0A0E0B0E084839583A6835E
:100DC000B78384E092E09183808385EC90E09587FF
:100DD000848784EC90E09787868780EC90E0918B05
:100DE000808B81EC90E0938B828B82EC90E0958BF2
:100DF000848B86EC90E0978B868B118E128E138EEF
:100E0000148E0895EDE3F2E082E0808383E0818335
:100E100008950E94C4060E94D5060C9402070E9401
:100E2000CE03E091ED02F091EE0282E08083E0914A
:100E3000E902F091EA021082E091EB02F091EC02FB
:100E400080E180831092F502E091F102F091F202CC
:100E500086E08083E091EF02F091F0028081806172
:100E60008083E091EF02F091F002808188608083BE
:100E7000E091EF02F091F002808180688083E09140
:100E8000EF02F091F00280818F7D80830E945504F3
:100E900084E292E00E948D0480E392E00E948D043F
:100EA0001092600210925F02109262021092610230
:100EB0000E942B020E947A010E94720160913D0201
:100EC00070E080E090E04AE00E94A50480E392E0B8
:100ED0000E948D040E94550460913E0270E080E003
:100EE00090E04AE00E94A50480E392E00E948D0415
:100EF0000E9455040E946703CBCFF8940C94AF076F
:100F000081E090E0F8940C94AF07A1E21A2EAA1B9E
:100F1000BB1BFD010DC0AA1FBB1FEE1FFF1FA217A9
:100F2000B307E407F50720F0A21BB30BE40BF50BA6
:100F3000661F771F881F991F1A9469F7609570952F
:100F4000809590959B01AC01BD01CF010895EE0FF6
:100F5000FF1F881F8BBF0790F691E02D1994F8941E
:020F6000FFCFC1
:100F620000000000EE02A0038F023B03C0029E02BB
:100F7200B202000000007E027302CB0347026B0242
:100F82005702480248656C6C6F20776F726C640080
:040F92000D0A000044
:00000001FF
